Alex                   78        870000000636EFED700000000636EFED70
Anthony                87        870000000636EFED780000000636EFED78
John                   87        890000000636EFED800000000636EFED80
Chris                  87        890000000636EFED880000000636EFED88
Samantha               89        880000000636EFED900000000636EFED90
Cindy                  89        780000000636EFED980000000636EFED98
Sarah                  88        660000000636EFEDA00000000636EFEDA0
Gabriella              78        660000000636EFEDA80000000636EFEDA8
Juan                   66        770000000636EFEDB00000000636EFEDB0
Brian                  66        880000000636EFEDB80000000636EFEDB8
