Alex                   77        8800000035BB2FF13000000035BB2FF130
Anthony                88        7700000035BB2FF13800000035BB2FF138
John                   88        8800000035BB2FF14000000035BB2FF140
Chris                  77        7700000035BB2FF14800000035BB2FF148
Samantha               88        8800000035BB2FF15000000035BB2FF150
Cindy                  77        7700000035BB2FF15800000035BB2FF158
Sarah                  88        8800000035BB2FF16000000035BB2FF160
Gabriella              77        7700000035BB2FF16800000035BB2FF168
Juan                   88        8800000035BB2FF17000000035BB2FF170
Brian                  77        7700000035BB2FF17800000035BB2FF178
